:020000040001F9
:10B00000603F0020D5B00100EFB00100F1B00100B9
:10B010000000000000000000000000000000000030
:10B02000000000000000000000000000F3B001007C
:10B030000000000000000000F5B00100F7B00100C2
:10B0400025B50100F9B00100F9B0010009B6010011
:10B05000F9B001000000000069B3010009B301006C
:10B06000F9B00100F9B00100F9B00100F9B0010038
:10B07000F9B00100F9B00100F9B00100F9B0010028
:10B08000F9B0010079B50100F9B00100F9B0010093
:10B090001DB60100F9B0010025B60100F9B00100AC
:10B0A000F9B00100F9B0010000000000000000004C
:10B0B0000000000000000000000000000000000090
:10B0C0000348854600F0C2F800480047B1F201008D
:10B0D000603F00200321094802680A4302600848D3
:10B0E00002680A4302600748804707480047FEE7B6
:10B0F000FEE7FEE7FEE7FEE7FEE70000240500406E
:10B100005405004051B60100C1B0010030B50B46F6
:10B11000014600202022012409E00D46D5409D4231
:10B1200005D31D469540491B2546954040191546B7
:10B13000521E002DF1DC30BD70B5002425460028DC
:10B1400001DA01244042002901DA01254942FFF7D2
:10B15000DDFFAC4200D04042002C00D0494270BD1F
:10B1600000487047D42B020003460B439B0703D0D3
:10B1700009E008C9121F08C0042AFAD203E00B78BC
:10B180000370401C491C521EF9D27047D2B201E034
:10B190000270401C491EFBD270470022F6E710B532
:10B1A00013460A4604461946FFF7F0FF204610BD35
:10B1B000421C0178401C0029FBD1801A704730B531
:10B1C00004460020034600E05B1C934203D2E05C8F
:10B1D000CD5C401BF8D030BD03460A780270401C9D
:10B1E000491C002AF9D118467047F0B51FB406462D
:10B1F000002082B005464024019100901BE0019997
:10B2000022460F46304600F043F8049A059B801A08
:10B21000994110D310461946224600F029F8361AF3
:10B220008F410197224601200021009F00F020F865
:10B2300038184D4100902046641E0028DFDC019B39
:10B2400000982946324607B0F0BD0000064C0125A3
:10B25000064E05E0E36807CC2B430C3C98471034BE
:10B26000B442F7D3FFF730FF142E0200342E020051
:10B2700010B5202A04DB0146203A9140002010BD81
:10B28000914020239C1A0346E3401943904010BD8F
:10B2900010B5202A04DB0846203AD040002110BD1A
:10B2A0000B46D340D0402024A21A914008431946AF
:10B2B00010BD70B58C180578401C6B075B0F01D171
:10B2C0000378401C2A1106D10278401C03E006785E
:10B2D0000E70401C491C5B1EF9D12B0705D40023BE
:10B2E000521E0DD40B70491CFAE70378401CCB1A90
:10B2F000921C03E01D780D70491C5B1C521EF9D591
:10B30000A142D8D3002070BDFEB5134C0026E068E2
:10B310000125124F002810D000F0C6FD00280BD0E8
:10B320000120B86068460670E0680190217C68469C
:10B330000181A57421688847FEBD09480660012087
:10B34000B8600848066069460D7080688880A574FA
:10B3500068462168EFE70000FC2A002000730040E7
:10B360000071004000750040F0B50024FF268BB04E
:10B370000136012527460694304604F0E5FA0028F8
:10B3800007D054484068284203D0304604F0D4FA2D
:10B390002C43361D6D007F1CB6B2042FECD3FF2565
:10B3A0007D35284604F0D0FA002809D0284604F05C
:10B3B000C3FA6807044306AA0121002004F0A8FA92
:10B3C000454D200714D00127002627420CD04348C2
:10B3D000B200111808690969C004C00E8903AA588F
:10B3E000890F002A00D090477F00761C042EECD3F2
:10B3F000002C6DDA00200890401E63E028194030D0
:10B400000778B906890E009100214156491C49D0A0
:10B4100009A9009804F00EF9002843D0B80901905A
:10B42000009801F023FE80002F580198002F02D0D1
:10B43000032802D00DE0032834D1009808ABC208DD
:10B4400041079446985C490F01228A4010436246A6
:10B450009854009805210907800040180721090227
:10B460004018006806A98003800F0290009804F03D
:10B47000E1F80028029802D0022802D012E0032846
:10B4800010D10198032808D1029802281ED0022169
:10B49000009804F023FA761CF6B2002F02D001992E
:10B4A0000098B847641C042CA8D3002E10D06A461C
:10B4B0000121002004F02CFA06990098884207D058
:10B4C0000690089800263446099097E70321DFE7A5
:10B4D0000BB0F0BD00630040B42A002000650040BE
:10B4E0008307FF22DB0E9A408907090E9940002846
:10B4F0000BDA0007000F0838830808489B0018186B
:10B50000C36993430B43C3617047830804489B009E
:10B510001B181868904308431860704700ED00E05E
:10B5200000E400E0F8B5FF20013004F08BF80024BF
:10B5300001250E4E0E4F002807D00E480460012052
:10B54000B0607D70002001F0EFFEFF20053004F0B8
:10B5500079F8002808D00748001D04600220B06078
:10B56000BD70012001F0E0FEF8BD000000030040C6
:10B57000A02A00200001004010B506490020086004
:10B5800048608860C860034940390860486006F038
:10B59000D5FD10BD4011014010B5034800780028CA
:10B5A00001D100F003F910BDE82E002070B50E4661
:10B5B00018214843134914464518E86A18350028ED
:10B5C00004D001280FD0022805D113E0284600F04E
:10B5D00023F9A04201D2002411E022463146284638
:10B5E00000F055F90BE0284600F016F9A042F4D21D
:10B5F0000446F2E73146284600F019F90446204691
:10B6000070BD0000E82E002010B50249024803F08A
:10B61000F7FA10BD102B00200030004010B506F0E6
:10B6200023FD10BD10B508484068002808D08047A9
:10B63000002804D0FF21054AAC3100F047FE10BDC0
:10B6400003F098FA10BD00003C210020B02D02004C
:10B6500010B503F02BFB002805D01F491D4848609A
:10B66000C8131E4988611E48018CC9B201290BD13B
:10B67000828C120708D1028D1206120F042A03D100
:10B68000828D1206120F0AD0012921D1818C09075F
:10B690001ED1018D0906090F0A2904D007E0114ABD
:10B6A00001219160F5E7828D1206120F05D00D2958
:10B6B0000ED1808D0006000F0AD10B4801680129C8
:10B6C00004D00A49016001680129FCD1C02141610F
:10B6D00010BD0000DFFF07C000050040006C004007
:10B6E000C00F00F00006004000EC0640759300001B
:10B6F00070B50546D3B20A460648294604F0A2F8BA
:10B70000040005D002462B4603A1042004F063FA8E
:10B71000204670BD902A02003A44454255473A0AF5
:10B72000547769536C6176655F525828292C2065DF
:10B7300072723A30782530387820616464726573AB
:10B74000733A3078253032782E00000038B50093F7
:10B750000546D3B20A460748294604F085F8040096
:10B7600005D002462B4604A1042004F034FA2046FA
:10B7700038BD0000902A02003A44454255473A0A33
:10B78000547769536C6176655F545828292C20657D
:10B7900072723A307825303878206164647265734B
:10B7A000733A3078253032782E00000010B5124CF4
:10B7B00002202061606111A0A0611348E0610120B6
:10B7C000400220620020A06260620CA1A1642146B8
:10B7D000E0621039E16410212165A0656065E065D3
:10B7E0000AA1E01DFFF7F8FC09A12046FFF7F4FCD1
:10B7F0002020A07110BD0000E82E00205465726D5D
:10B80000696E616C00000000D82C00205254540076
:10B8100053454747455200000269C1688A4203D830
:10B820008068401A801800E0501A401E7047F7B533
:10B83000064682B000200090F46817463069A042A6
:10B8400001D9051B02E0B168201A0D1AB0686D1EFF
:10B85000001BA84200D80546BD4200D33D46706893
:10B860002A4600190399FFF77FFC00987F1B4019B7
:10B8700000900398641940190390B068A04200D169
:10B880000024F460002FD9D1009805B0F0BDF7B5C1
:10B89000C668174604468068851B6068BD4206D9A5
:10B8A00080190199FFF760FCF019E060FEBD2A469F
:10B8B00080190199FFF758FC01987E1B4119324607
:10B8C0006068FFF751FCE660FEBD00000FB41CB5D8
:10B8D0000246002007AC00290BD0491E01910092BE
:10B8E000064B6A462146069800F048F8009A002167
:10B8F00011701CBC08BC04B018470000F1BD010069
:10B900000FB410B504A9074B02AA039800F036F84B
:10B91000044602A9002000F076FA204610BC08BCBC
:10B9200004B0184707BE010030B47446641E257881
:10B93000641CAB4200D21D46635D5B00E31830BC63
:10B94000184702E008C8121F08C1002AFAD1704740
:10B950007047002001E001C1121F002AFBD170478F
:10B96000202804DA012181400348014201D001204E
:10B970007047002070470000FC06FFBCFFB591B087
:10B980000F460546002606E025280AD0149A13998A
:10B9900090476D1C761C28780028F5D1304615B0EC
:10B9A000F0BD002400940121F34A029400E0044316
:10B9B0006D1C2B780846203B98401042F7D1287820
:10B9C0002A280ED0022128780246303A092A15D8B2
:10B9D000009A0A235A43303A80180C436D1C009099
:10B9E000F1E701CF0090002805DA0120400304436D
:10B9F000009840420090022004436D1C28782E28B5
:10BA000015D10420044368786D1C2A280AD101CF7F
:10BA10006D1C02900BE002990A2251433039401804
:10BA20006D1C02902878014630390929F3D928780D
:10BA30006C2810D006DC4C281AD068280ED06A2852
:10BA400017D104E0742813D07A2812D110E0012015
:10BA5000400504430CE00121090501E0032109052B
:10BA60000C436978814203D10120000524186D1C24
:10BA70006D1C287803906E281ED00CDC632831D012
:10BA800004DC00288AD0582811D1B2E064287BD089
:10BA900069280CD178E073282DD004DC6F2870D091
:10BAA000702804D1A7E075286CD078286BD0149A40
:10BAB00013999047761C62E06002400F022807D07D
:10BAC00003280AD0042838680AD006603F1D56E0D3
:10BAD0003868F11706604160F8E738680680F5E7D6
:10BAE0000670F3E73878694608740020487404A8A3
:10BAF0000390012003E0386803900020C0433F1DFD
:10BB000061070FD5002101E00199491C029A0191BA
:10BB1000914213DA8142F7DB019A0399895C00298B
:10BB2000F2D10BE0002101E00199491C0191814211
:10BB3000FADB019A0399895C0029F5D101990098F3
:10BB4000139A401A00902146149B00F03BF901998A
:10BB50008019461807E0039803990078491C03915F
:10BB6000149A139990470198401E0190401CF2D1FD
:10BB70002146149B139A009800F014F986196D1C45
:10BB800009E741E033E034E00A2000210490059108
:10BB90006002410F022905D001CFC2179446032944
:10BBA00005D007E0FF1DFF08FF0003CF06E000B24D
:10BBB000C2179446042902D140B2C1178C46002214
:10BBC0006146944506DA0A460021404291418C467E
:10BBD0002D2102E0210504D52B216A461176012191
:10BBE00003E0E10701D02021F7E7019154E00A20AA
:10BBF0000BE0102009E010200490002104200443F1
:10BC000008200591029003E008200021059104908E
:10BC10006002410F022905D001CF0022944603297A
:10BC200006D006E0FF1DFF08FF0003CF8C4603E0AF
:10BC300080B2042900D1C0B20021019121072BD587
:10BC40000399702906D0049A1021059B4A401A4393
:10BC500005D00EE040216A461176012108E06146D8
:10BC6000014306D030216A461176039951760221AC
:10BC70000191049A0821059B4A401A430CD1614660
:10BC8000014301D1610707D530216A4611760121B0
:10BC900001910299491E02910399582904D037A1B4
:10BCA00003910FA90F910DE039A1F9E76146059BBA
:10BCB000049AFFF79AFA039B8C469B5C0F9A521EDC
:10BCC0000F92137061460143F0D10F9807A9081A2B
:10BCD00020300390600704D50120000484430298BB
:10BCE00001E0012002900399884201DD401A00E042
:10BCF000002041180290019809180098401A0090FD
:10BD0000E00306D42146149B139A009800F05AF8D9
:10BD100086190020049008E006A9085C149A13997B
:10BD200090470498401C761C049001998842F3DBEC
:10BD3000E0030CD52146149B139A009800F042F8BA
:10BD4000861904E0149A302013999047761C0299C2
:10BD5000481E02900029F5DC08E00F980F99007842
:10BD6000491C0F91149A13999047761C0399481E09
:10BD700003900029F1DCFBE6092801003031323361
:10BD80003435363738396162636465660000000017
:10BD90003031323334353637383941424344454601
:10BDA00000000000F8B5044600251E46174688042A
:10BDB00004D405E039462020B0476D1C641EF9D537
:10BDC0002846F8BDFFB50446002581B01E46C803CD
:10BDD00001D5302700E02027880404D505E0384647
:10BDE0000399B0476D1C641EF9D5284605B0F0BD17
:10BDF0004A68002A06D00A68531C0B601070486815
:10BE0000401E486070470A68531C0B6010707047F2
:10BE10007FB5684602F0E6F8684600210222415EDE
:10BE2000825E494352438A180421415E1C4E4943B5
:10BE3000306854184043A04201DA012500E0002593
:10BE4000174A0221083A284605F0A2FD70684043CF
:10BE5000A04201DA012400E00024114A0021121F4F
:10BE6000204605F095FD6A460021515E02A802F0C9
:10BE70007DFE6A46022102AE515EB01C02F076FEE3
:10BE80006A460421515E301D02F070FE6A469573C9
:10BE9000D473082202A9034805F084FB7FBD00008B
:10BEA000FC1F00205024002070B514490020124BC4
:10BEB0000860134908608C681248427CC5685600C7
:10BEC000521CAC53D2B24274047CA24212D2846897
:10BED00000226468002C0AD0012284602068486037
:10BEE00001200860002A00D01860002070BD44685E
:10BEF0008460F3E7012070BD0070004000710040D5
:10BF000000750040FC2A002070B50D460446212132
:10BF10008AB00902684601808570A21C694601202A
:10BF2000A0DF002803D025A26A2100F0CFF920214C
:10BF300001A8FFF732F96846857100257121057661
:10BF40000902818014210181417CF52001401020EB
:10BF500001436846417401260674C574057545752C
:10BF60008575C6756088221D01A901F0D9F80028E1
:10BF700003D012A27E2100F0A9F9392149026846B6
:10BF8000818005210181417C0A200143EF2001408D
:10BF9000684641740574C674067546758675C57520
:10BFA000224660880C3201A901F0BAF8002803D0BB
:10BFB00002A28D2100F08AF90AB070BD2E2E5C73AA
:10BFC000656E736F725F736572766963652E630069
:10BFD00010B500280CD000290AD002780B789A42BC
:10BFE00006D10622401C491CFFF7E9F8002801D0C1
:10BFF000002010BD012010BDF7B584B00646002515
:10C000001788158020300290407B1446002806D007
:10C010003A462146059800F039FF050009D1B0786D
:10C02000002823D0059886462088001DB84202D9F2
:10C030000C2007B0F0BD684679DF0028F9D12188CF
:10C0400003207246505420881921401C80B2208061
:10C05000115420887146401C80B2208041186846E7
:10C06000008806F0A5FA218840182080F078002882
:10C0700017D0218803230A46F356C91C0598B942F4
:10C08000D6D80221815421880122491C89B22180FD
:10C0900042542188491C89B2218043542088401C85
:10C0A00020807068002817D021880023C3560A46D4
:10C0B000C91C0598B942BBD80221815421880A22A3
:10C0C000491C89B2218042542188491C89B22180AF
:10C0D00043542088401C2080308900280AD00094D6
:10C0E00030460197062202210830059B06F088FAA7
:10C0F00005009ED1308A00280AD00094304601976E
:10C10000072203211030059B06F07AFA050090D132
:10C11000308B00280AD00094304601971522142154
:10C120001830059B06F06CFA050082D1306A0028B1
:10C1300006D03B462246059901F05EF90500D8D1AC
:10C14000706A002806D03B462246059903F060F944
:10C150000500CED10298007B002807D03B4622463E
:10C160003046059905F022FB0500C2D13078002841
:10C1700007D03B4622463046059903F07DF905007D
:10C18000B7D1284655E70000174A0021535C002B21
:10C1900001D0012203E0491C0629F7D300221349EC
:10C1A000012806D002280BD0032810D0042818D16B
:10C1B00012E04878002803D0002A01D001207047FF
:10C1C0008878002803D0002A01D002207047C87860
:10C1D000002801D0032070470879002801D00420EE
:10C1E00070470020704700001D200020942400208C
:10C1F000F0B50F468DB0002116466D460F24621A29
:10C20000825C6A54491C1029F9D328460D2110304C
:10C21000FEF7C3FF0020221A395C5219401C11742A
:10C220000328F8D368464DDF0020211A4919203130
:10C2300009783154401C0328F7D30DB0F0BD704786
:10C2400008B500920B4602460EA1042003F0CBFC79
:10C250001A4919481A4A096800BF00BF00BF00BF49
:10C2600000BF00BF00BF00BF914200D000BF013837
:10C27000F2D1BFF34F8F14491248C860BFF34F8FFC
:10C2800000BFFDE73A44454255473A0A6170705F86
:10C290006572726F723A2069643A30782530387866
:10C2A0002070633A30782530387820696E666F3AAE
:10C2B0003078253038782E00400D030050210020C2
:10C2C0000024F4000400FA0500ED00E00EB56B4612
:10C2D0001980019202906A4600210248FFF7B0FFE0
:10C2E0000EBD00000140000010B502881049102A60
:10C2F00010D0112A10D0084600883A2A10D0552AAA
:10C3000007D1132176DF002803D00AA29721FFF777
:10C31000DDFF10BD808801E00020C043088010BD13
:10C32000132176DF0028FAD002A29221EFE7000065
:10C33000EC1F00202E2E5C6170705F6761702E63B1
:10C3400000000000F7B5244C82B060880E468142A0
:10C350003FD800256846214F057000F025F9227866
:10C360006078A188884201DA401C00E00020C0B259
:10C37000904204D16846007800F034F927E06578EF
:10C380006078884201DA401C00E000206070684656
:10C39000007800F027F9BD4219D0A068EF00049999
:10C3A000C151029900290CD0002E0AD06088324673
:10C3B0004543E0682818FEF7D7FEA0683818868045
:10C3C00002E0002138188180002005B0F0BD042073
:10C3D000FBE70920F9E70000E0200020FFFF000054
:10C3E00010B50D4C03E0401C00E0002020702078C8
:10C3F000617881420FD021786088E26848438018D4
:10C40000A368CA00D1189A58898890472078A188D3
:10C410008842EADAE7E710BDE020002030B5CB0023
:10C4200008339DB293070024002B01D0072030BDB4
:10C43000044B9A605219DA605C701C7058809980C5
:10C44000002030BDE0200020094B5B68002B07D0A6
:10C45000002A07D0002805D00068037C002B03D0F9
:10C4600008207047072070474174426100207047E0
:10C470002821002010B50446082904D0044A3021A0
:10C480000020FFF723FF21686068884710BD000087
:10C490006C2C02001CB501910090034A08216846EB
:10C4A000FFF750FF1CBD000075C40100FFB5074633
:10C4B0009007002581B01E461446002825D1002C87
:10C4C00023D004F0DBFE3046114EF06030461030D1
:10C4D0000570457002998170446075603570012463
:10C4E0000C4875702405046003211420FEF7F8FF42
:10C4F00009480460094CA76003211120FEF7F0FFF2
:10C500006068B060002005B0F0BD0720FBE70000C8
:10C510001821002080E200E000E100E00015014069
:10C52000FEB51F4B5B68002B30D000282ED00529AC
:10C5300001D20720FEBD4369002B27D0437C012B8D
:10C5400026D00027029104460025694616460D7044
:10C55000684600F029F801A806F03CF8002819D038
:10C56000012101700F4944604968816002990761A7
:10C570004661C16068460A4900794870684600789B
:10C5800000F030F805F0B2FD2846FEBD0820FEBDE3
:10C590000F46D7E768460425007800F023F8F3E754
:10C5A000282100200015014030B5EFF3108172B64C
:10C5B000094A54680123002C04D00370002900D1DB
:10C5C00062B630BD5360054B1D68054C25401560B3
:10C5D0001C6000220270F1E7F420002080E100E0FE
:10C5E000FC06FFBC08494A68002A0CD000280AD182
:10C5F000EFF3108072B60A68044B1A6000224A609A
:10C60000002800D162B67047F420002000E100E06D
:10C61000F0B504468BB0008800F0ECFB0590208854
:10C6200001F0A6FF0646A0680090657A684605748A
:10C630001E4F20880022397800F014FC059800284D
:10C6400031D06079400710D50721304603F07CFED9
:10C65000002813D0082269460A7422884A828E82F2
:10C66000069004A801F06AF808E02088B97800F084
:10C67000E7FB002802D0304601F064FF0321684642
:10C6800001712188C18060794007C10F684601723D
:10C69000A0794007C10F6846417201788172C57266
:10C6A00001A801F04BF80BB0F0BD00007C20002089
:10C6B000F0B50546007D002493B00E4600280DD04D
:10C6C000012001466846103103940173717B417368
:10C6D000817BF92001406846891C81731C2104A8D4
:10C6E000FEF75BFD6946087C022108436946087431
:10C6F0002A7DEF21002A02D01022104300E00840DA
:10C700006A461074059407940894287D002800D088
:10C7100003A8099001270A9410469771304A828035
:10C720000094B27B0270F27B42708078F922104054
:10C73000F722801C1040EF2108404108490068465C
:10C740008170317B017214210BA8FEF726FD01A830
:10C750000B9068460C908786C486078702A80F90C6
:10C76000A888AB1D0BAA04A9A2DF002835D1B068A8
:10C77000002830D0684687711A4981800094317C46
:10C78000017000200146684641708078F921084018
:10C79000F721801C0840EF21084041084900684605
:10C7A000817011A8B16800F051FC064614210BA855
:10C7B000FEF7F3FC01A80B9068460C908686C486B1
:10C7C000068711A80F902A46E8880E320BA9A3DF2E
:10C7D000002802D100E0EC81002013B0F0BD000081
:10C7E000192A00000829000010B501F031FC0446A8
:10C7F0000C480D49408A88420ED02146094800F075
:10C80000CDF9002808D00949884205D0082803D06E
:10C8100007A22421FFF75AFD002C01D1FFF70FFDDD
:10C8200010BD0000B4210020FFFF00000230000016
:10C830002E2E5C626174746572795F7365727669BD
:10C8400063652E6300000000F0B50C4693B01F2115
:10C850006A461180072600279180002809D0C178F8
:10C8600049070DD502A9FFF7C7FB002809D102AD82
:10C8700001E000251780002C0ED0E078002802D0BF
:10C88000304613B0F0BD01AA0AA92046FFF7B4FB59
:10C890000028F6D10AAA02E068460022878068468E
:10C8A0008088C3B268460088C1B2284672DFE8E7D4
:10C8B000FFB581B01E460A9F1346040047D0002BE7
:10C8C00045D0504D012028700020E87020221946E4
:10C8D0004D48FEF749FC00206F61C0432E6128815E
:10C8E000284607211830FEF758FC47483C212030E5
:10C8F000FEF753FC4448217820300170A178817004
:10C90000E178C170617841703F4A65692369556378
:10C91000114613632031E368A268CB608A603A490C
:10C92000E369A269CB638A63616A00291AD0014670
:10C930003C310246483241628A60636A1B880B8040
:10C94000616A436A898899800021436A07E00E2062
:10C9500005B0F0BD656AAD686D5C5554491C9D8895
:10C960008D42F7D8A16A00291CD0274A943211467B
:10C970000C398A608162A36A9B888B80A16A836A72
:10C98000098819800021836A04E0A56AAD686D5C9E
:10C990005554491C9D888D42F7D82C210A5D1A49AF
:10C9A00040310A73216A002909D016490A3101620F
:10C9B000226A52884A80216A026A09881180616865
:10C9C000002900D04160104A0E490020B3322031C6
:10C9D000C3001B1A85009B180C68401C6351082873
:10C9E000F6DB094A0020EB32030185009B188C68B6
:10C9F000401C63510828F7DB034802992030FFF7F9
:10CA000023FFA5E7042000209424002010B501880E
:10CA1000134C102915D0112919D01B2910D1007AD7
:10CA200000280DD1E0780521401CFEF76FFB084679
:10CA300000F030F8002803D06169002900D0884751
:10CA400010BD817D0129FBD18088208110BD00218E
:10CA50006171808821898842F8D10120E8E70000CF
:10CA60000420002010B5022801D003280ED1084C64
:10CA7000607800280AD000206070E07800F00AF8A2
:10CA8000002803D06169002900D0884710BD00004C
:10CA900004200020F1B53F4C88B0207800280AD04F
:10CAA0000898E07006A801F067F8069801250028AC
:10CAB00004D065706AE0082009B0F0BD3548002751
:10CAC00007211830FEF769FB334E7078002802D03A
:10CAD000E078012807D0B07800280CD0E078012851
:10CAE00001D0022807D12169002903D0257108202F
:10CAF000884700E027710898FFF746FBE07021693E
:10CB0000002909D0032801D0042805D13078002855
:10CB100002D06079002811D0A77118216846FEF76D
:10CB20003CFB684607700772E1781A480B00183022
:10CB3000FEF7FAFE052E080F191D2000A57107202B
:10CB40008847EAE7A570019068460570478207822A
:10CB500013E00221A170019068460570B1894182FD
:10CB60003189018209E0684604F0BCFE02E06846B3
:10CB700004F0E4FEE078002803D0684673DF002864
:10CB80009AD12169002901D0A0788847002093E735
:10CB9000A770F6E7042000209424002073B586B027
:10CBA00004002FD06A46217C127F0020914227D0BA
:10CBB00000250126684600950680458007A801905B
:10CBC000E188608A6A46A4DF002819D16846007FA0
:10CBD0002074608A0D49884216D0207D002813D029
:10CBE0000295039504950595E18868460181867252
:10CBF00041888181049001980590608A02A9A6DF8E
:10CC000008B070BD0E20FBE70820F9E7FFFF000029
:10CC100038B50D4604001AD0002D18D028682060C1
:10CC20000020C043608228792075FF2020740121F4
:10CC30006846817007490180221D69460120A0DFF6
:10CC4000002803D129462046FFF732FD38BD0E20CB
:10CC500038BD00000F18000038B5002824D0002986
:10CC600022D00A88102A1AD0112A1AD0502A1BD191
:10CC70000446007D002817D0C8886289891D90422B
:10CC800012D1488902280FD1206800280CD008460C
:10CC90000C3000F0D4F9002807D0002006E0898885
:10CCA00001E00021C943418238BD01206946087076
:10CCB00022682046904738BD10B503490A7D091DFA
:10CCC00004F093FB10BD000040260020034B10B57C
:10CCD0000246D97D181D04F075FB10BD40260020CA
:10CCE000034B10B50246197E181D04F06BFB10BDF6
:10CCF00040260020F0B5044602883B488DB001462E
:10CD000015310191102A09D0112A52D01A2A4CD17A
:10CD1000217A0909012950D901234FE0027D417D83
:10CD200005468A43011D07A804F05FFB142207A9EA
:10CD300002A8FEF719FA00262B483746143008904F
:10CD40000AE0710002A8081883881D220097281D98
:10CD5000089904F0F7FA761C0298B042F1D8287DC1
:10CD6000A688C043C0B204F011FB2049884217D006
:10CD700040004019868001233246281D019904F0A5
:10CD800057FB01233246281D089904F051FBA07D72
:10CD900002280CD000231449A2881631281D1FE058
:10CDA000134AE1210420FFF791FA0DB0F0BD0123F1
:10CDB000F1E70023A288001D12E000230A4905467E
:10CDC000A2881731001D04F033FB207A00090228E5
:10CDD00001D9012300E000230349A2881831281D4E
:10CDE00004F026FBE1E7000040260020FFFF0000E2
:10CDF000D82B020070B50B4E05460024317D2A4623
:10CE0000301D04F0DFFA002809D0B17D2A46301D1C
:10CE100004F0D8FA002801D0022400E001242046C2
:10CE200070BD00004026002010B5044605F0C6FB8A
:10CE3000002802D001480019407E10BD4026002085
:10CE400070B505460C46084605F0B8FB002806D02C
:10CE500003482A460119497E001D04F0B3FA70BD4B
:10CE60004026002070B5064615460C46084605F0DB
:10CE7000A5FB002807D004482B4601193246001DA7
:10CE8000193104F0D5FA70BD402600207CB5054666
:10CE900008880C460930904201D90C207CBD6846B8
:10CEA00071DF0028FAD121880820685420881B21CE
:10CEB000401C80B220802954208800A9401C80B2E8
:10CEC0002080401906220131FEF74EF9208869467C
:10CED000801D80B220800978002900D001212954CA
:10CEE0002088401C208000207CBD00007FB50446C7
:10CEF0000121684681714A4981804A4A01A901207D
:10CF0000A0DF00287ED1228825463C35002A09D0A2
:10CF100044482B46801C00904348616800F0AEF8FE
:10CF200000287BD12289002A0AD03E482B460A30AD
:10CF300000903D48E168401F00F0A0F800286DD146
:10CF4000228A002A0AD037482B46123000903648F1
:10CF50006169001F00F092F800285FD1228B002A3F
:10CF60000AD030482B461A3000902F48E169801EC5
:10CF700000F084F8002851D1228C002A0AD02948D8
:10CF80002B46223000902848616AC01E00F076F8D7
:10CF9000002843D1228D002A0AD022482B462A306D
:10CFA00000902148E16A401E00F068F8002835D161
:10CFB000216B00290ED002A805F028F819482B464D
:10CFC000323000901848082202A9801F00F056F85D
:10CFD000002823D1606B00280BD012492B463A3130
:10CFE0000091027901681048401C00F047F80028C1
:10CFF00014D1A16B002910D002A803F0A7FE0948A4
:10D00000423000E00AE0009007482B46072202A9C0
:10D01000273000F033F8002800D1002004B070BDA4
:10D020000A18000096200020292A000070B5044646
:10D030000D460846FEF7BCF82080656070BD41785B
:10D04000027808021043C007C00F70470A780270C8
:10D050004978417002207047002901DA00207047AA
:10D060000268511801600120704700000249091848
:10D070002020085670470000B42A0020FFB58FB06A
:10D080001E4615460F0004D1234A88210020FFF7D1
:10D090001DF9002D04D1204A89210020FFF716F93F
:10D0A0001C216846FEF779F86846017802200143A2
:10D0B00068460170002401940394049405940121AE
:10D0C00008A80694817068460F9901840794317806
:10D0D000017771784177807FF9210840F721801C22
:10D0E0000840EF2108404108490068468177142133
:10D0F00009A8FEF752F808A8099007A80A90684600
:10D100008585C485058605480D9709AA6946008866
:10D11000189BA2DF13B0F0BD202C02009620002047
:10D12000F7B58878012592B00C46002817D008A9D9
:10D13000887720886946888700270797607C07A939
:10D1400004F03CFC07A9A07C013104F037FCE07B33
:10D1500000286846807F05D00821084304E008A81D
:10D160008577E6E7F721084069468877217C002922
:10D1700002D01021084301E0EF210840694688777A
:10D18000217B002901D0284301E040084000694686
:10D190008877F926217D3040002901D0022100E066
:10D1A000012149000843694688771C216846FDF73C
:10D1B000F4FF607BC10601D4800610D50E970EA93E
:10D1C000E07C013104F0FAFB0120014608A810318F
:10D1D0000176817E3140891C81760EA80590617BA5
:10D1E00068460170A17B4170142109A8FDF7D5FFA5
:10D1F0000FA8099007A80A90A18868460186A06830
:10D20000002804D0E08869468885A0680D90A06950
:10D21000002844D00897018868460181A06908AFBA
:10D22000418868464181A06908A940680497019037
:10D23000A069007B04F0C2FBA069791C407B04F06C
:10D24000BDFBA069807A002808A8807802D0082158
:10D25000084301E0F721084008A98870A169C97A4C
:10D26000002902D01021084301E0EF21084008A95D
:10D270008870A169097A002901D0284301E040089B
:10D28000400008A98870A1693040897B002901D03D
:10D29000022100E001214900084308A98870E069E3
:10D2A000002800D0039009AA6946149B1298A2DFB7
:10D2B00015B0F0BD002807D00449814204D80449C4
:10D2C000814201D901207047002070475C21002075
:10D2D0007C210020044A0168914201D0083101E01C
:10D2E0000149383901607047142C002070B50D4D8C
:10D2F00004460A462846AC4208D1FF2401342146A0
:10D30000104603F07FFBA0420AD070BDFF2CFCD872
:10D310002146104603F068FB002801D0204670BD6E
:10D32000284670BDFFFF000070B5084C050009D00D
:10D3300010342168002907D0086820604968284611
:10D340008847F6E70834F4E770BD0000A02A002003
:10D35000F8B52348416800293ED00E6821494C6841
:10D3600087688078E11B0D022D0AED1C002814D17E
:10D3700001201D4A000450601B4A403A50601B497E
:10D38000400008601A4908601A49012008602F20EF
:10D3900002F078F9124901208870B54200D2354672
:10D3A000E81900020F4B000A403318600D4A51681B
:10D3B000001B091B0902090A0002000AC91C81425C
:10D3C00009D9506818602F2002F05CF90120074944
:10D3D000400480390860F8BD03F050FFF8BD00003C
:10D3E00018210020001501404013014080E200E0B8
:10D3F00000E100E000100140F8B506461088144630
:10D400008446801D0D46984201D90C20F8BD328813
:10D410000720062AFAD31927FF01184BBA4201D96F
:10D420009A42F3D171880629F0D3B94201D99942C1
:10D43000ECD19A4203D0994201D08A42E6D8052124
:10D440006046295420881221401C80B22080295433
:10D450002088401C80B220804119308805F0A8F84F
:10D460002188401880B220804119708805F0A0F80A
:10D470002188401820800020F8BD0000FFFF000038
:10D480007CB5054648780C46097800060014084328
:10D490000090E078A17800060014084301906846E7
:10D4A00000F0ECFD2179814204D10099019A06C572
:10D4B00001207CBD00207CBD7FB50C46002802D039
:10D4C000012004B070BD20790026002806D01B4D35
:10D4D00001281CD0022828D00F20F2E702960396DC
:10D4E000E0680190694601A803F0FAFD00280AD01F
:10D4F00002988188E1800088208169460988029825
:10D5000003F068FE00E00A2002212171D9E70C4BEC
:10D510006A460021A01D03F0A1FD002807D008499C
:10D5200008398E60CE600A28CBD12846C9E7044866
:10D530008188019803F04EFEF5E700001D1D0000F4
:10D540000421002010B50446FFF7D4FB204603F069
:10D550009BFA2046FEF7C8FE2046FFF757FA204602
:10D5600000F0BEFE21460D4804F039F8204603F0D5
:10D570000FFC208810280CD011280BD0552808D17A
:10D58000A088132176DF002803D005A26621FEF7CC
:10D590009DFE10BD04F0E2FC10BD000050240020F0
:10D5A0002E2E5C6D61696E2E6300000010B504467E
:10D5B00000F030FB2046FFF755FA10BD10B50E49BC
:10D5C00000230A784C78A24212D0521CD2B20A70C0
:10D5D000022A00D10B700A78074B920018339A5830
:10D5E0000260886810180002000A8860012010BDDF
:10D5F0000360002010BD0000182100203EB5094D39
:10D6000038CD0093029501946B46588099809A71A9
:10D61000054900220978FFF725FC684600F08EF8DE
:10D620003EBD00001C2B02007C20002010B50478B9
:10D6300000222300FEF778F9070605070D1D262CAA
:10D6400006000A7010BD01220A7002898A81828850
:10D6500014E002220A7002898A818288CA81C26823
:10D660008A60007C062802D00020087410BD0120CA
:10D67000FBE703220A70C2888A810289CA81C068D6
:10D68000886010BD04230B70C0888881CA8110BDDA
:10D690000520087010BD000070B5064D0646002438
:10D6A000A0002958002901D030468847641C082C66
:10D6B000F6D370BD442B00200EB5002910D01129DF
:10D6C0000ED00022009202926A46508001910D29EC
:10D6D00007D0862907D009201070104600F03CF8CA
:10D6E0000EBD0B20F8E70A20F6E7000001490968A3
:10D6F000084700003C20002070B5054D0646002478
:10D70000A000295830468847641C022CF8D370BD0D
:10D71000C42A0200F8B507460024064E064D04E070
:10D72000A000315838468847641CE8788442F7DB0B
:10D73000F8BD0000542A00206C20002070B5054D73
:10D7400006460024A000295830468847641C022C55
:10D75000F8D370BDE42A02000149096808470000B7
:10D76000282B020000B5104987B00978890702D438
:10D77000022007B000BD0D49884201D10420F8E71E
:10D78000052269460A7001220A71C88000221146EA
:10D79000684602F0A1FB002803D003F015FC00202E
:10D7A000E7E70820E5E70000FC200020FFFF00007D
:10D7B00038B5040014D0694603F092FC002813D059
:10D7C000684600880101094809188889002809D09D
:10D7D000A27A002A06D0401E88810020A07238BD9F
:10D7E000052038BD062038BD0A2038BD242C002075
:10D7F0001FB501A9684603F031FC04B010BD07B5A0
:10D8000013460A466946002003F028FC0EBD07B502
:10D8100013460A460021684603F020FC0EBD00288E
:10D8200005D0002903D0006808600020704705205B
:10D830007047000038B50D46040017D0002D15D0F4
:10D84000694603F04DFC002812D0684600886168E4
:10D850000201084812189089401C90812960606874
:10D860000C3068600120A072002038BD052038BD52
:10D870000A2038BD242C002010B5002804D0032332
:10D88000002204F0BFFF10BD052010BD10B502231B
:10D89000002204F0B7FF10BD10B5002A03D0022308
:10D8A00004F0B0FF10BD052010BD000038B50446DF
:10D8B0000A480D460078800701D4022038BD002CAC
:10D8C0000AD06946284605F0ADF80028F6D1694629
:10D8D00009882180658038BD052038BDFC200020E6
:10D8E00010B504460E480078800701D4022010BD10
:10D8F000002C10D0218802290FD80A4A080180186C
:10D9000042896088121A032A07D405F081F80020A2
:10D910002080608010BD052010BD042010BD0000D7
:10D92000FC200020242C002003218903401A80B20F
:10D930007047000002490A7882430A70704700006D
:10D94000FC20002002490A7802430A707047000058
:10D95000FC20002070B5064600200546862906D02A
:10D96000112902D0002903D070BD012500E001205B
:10D970000E4C002A02460FD061793046FFF772FA4A
:10D980002A4621793046FFF76DFA00226178304649
:10D99000FFF768FA002204E061783046FFF762FA88
:10D9A0002A4621783046FFF75DFA70BD80200020BE
:10D9B00010B5002823D0124B0022001F196803E085
:10D9C000814203D80A4649680029F9D1002A0AD0C1
:10D9D0001368841A9C4204D100681818106010461D
:10D9E00002E0506000E01860002907D002680B1ABE
:10D9F000934203D10B68D21802604968416010BDA0
:10DA000054210020F8B506461C481F4600781546EC
:10DA10000C46C0070AD03046FFF74CFC002807D060
:10DA2000002C07D0A00507D00620F8BD0120F8BDC6
:10DA30000220F8BD0320F8BD3068A04204D8A80237
:10DA400071680019884201D90520F8BD002D10D059
:10DA5000684603F00BFA00280DD000980221C0C0E0
:10DA60000170A101090C8180058103F0BBFA00203F
:10DA7000F8BD0420F8BD0720F8BD000014210020E7
:10DA800010B5084603F00EFA10BD000010B50029CD
:10DA900004D00A4602A1042002F096F810BD00004E
:10DAA0003A44454255473A6572726F723A2066733E
:10DAB0005F6576745F68616E646C65722C20726558
:10DAC00073756C743A25642E0A000000F0B5264880
:10DAD000264C001B0309264819464069421C03D105
:10DAE0000120000740698002224A12789646D20738
:10DAF0000CD00020F0BD1D4C15012C192568002DFF
:10DB000003D06468002C00D0491E521C9A42F2D304
:10DB1000002420E0E2B2002594462A460FE0134E8E
:10DB20001701BE193768002F02D07768002F05D182
:10DB3000767BAE4202D93546D6B2B446521C9A42E2
:10DB4000EDD362461501094AAA185060157BAD0253
:10DB5000401B641C10608C42DCD3064871460122D5
:10DB600011430170C5E700007C2100205C210020EA
:10DB70000010001014210020002804D00349496E31
:10DB8000016000207047032070470000542C0020E3
:10DB9000F8B507461E481E46007815460C46C007D5
:10DBA0000ED03846FFF786FB00280BD0002D0BD097
:10DBB000002C09D028462043800707D00620F8BD56
:10DBC0000120F8BD0220F8BD0320F8BD3868A0424E
:10DBD00004D8B10078680919884201D20520F8BD3F
:10DBE000002E11D0684603F041F900280ED00098AD
:10DBF00006990760416001210172C5600461868257
:10DC000003F0F0F90020F8BD0420F8BD0720F8BDAE
:10DC10001421002070B5174B0446186E1821484394
:10DC20001549C0180A78950715D5022C02D0032C87
:10DC30001CD102E002F026F918E04A78521CD2B258
:10DC40004A70032A12D900224A70082103F086FC88
:10DC500003F0F6F80AE0500708D5FB2002400A70EE
:10DC6000586E002802D0022002430A7003F076F9B1
:10DC700070BD0000542C00201421002070B5002835
:10DC800001D0012070BD164C0025207B002801D05A
:10DC9000257301E000F09CF820780300FDF744FEB6
:10DCA000081E05080B0E1E111A1E00F01BF870BD91
:10DCB00000F07EF870BD00F061F870BD00F038F83B
:10DCC00070BD60880649000120394018406802F0A4
:10DCD00049F970BD656002F053F970BD0F2070BD49
:10DCE000442C002070B5104900208A1C0D460346C4
:10DCF000203D0C18A67A002E08D0A37204016419E6
:10DD0000A689002E02D1A47B012C08D0401C80B231
:10DD10000228EED30B704B8004484B6070BD10801E
:10DD200000F046F870BD0000442C00201D1D0000CE
:10DD300010B50F4C608801012046203808188189F1
:10DD400000290BD0052020700A480221818001683B
:10DD5000002301220848FFF755FE10BD416800234B
:10DD600001220548FFF74EFE0421217010BD00007E
:10DD7000442C00200C2100206C21002038B50A49D9
:10DD800008480B6889884268890059185388032419
:10DD900004700020DB1C00909BB20448FFF7F8FEE3
:10DDA00038BD0000442C00200C2100206C210020F4
:10DDB00010B506494888091D03F0E2F9002802D091
:10DDC000FFF7DCFF10BDFFF7B3FF10BD442C0020B0
:10DDD000F0B51D481D4907780246012502268C88AA
:10DDE000203A3B00FDF7A0FD080517171A212C2C3F
:10DDF00016170189491C01810021418001730B0123
:10DE0000D35C002B08D000234418491C89B2A372AC
:10DE10000229F4D30570F0BD0123F5E7426852886A
:10DE2000D21CA2188A800670F0BD45880B682D01AF
:10DE3000AA1855680D60536014818E80062100E099
:10DE400007210170F0BD0000442C00200C210020AF
:10DE5000F0B504460088384D8DB050281DD05228AA
:10DE600002D0542826D103E0A08801F08FF921E0E8
:10DE7000062069460870A08800F07AFB6946488051
:10DE8000A2888A8000F05AF9A0880022E978FEF77B
:10DE9000E9FF6846FFF72AFC0CE0207B012809D146
:10DEA000A07A012806D120892449884202D1A0887D
:10DEB00001F0A8F9A878FEF7B7FF002819D008A844
:10DEC000FEF7FAFE142208A903A8FDF74DF9002475
:10DED00003AE0BE060008719B888A978FEF7B0FFA1
:10DEE000002802D0B88801F051F9641C0398A042C0
:10DEF000F0D86878FEF798FF002819D008A8FEF738
:10DF0000DBFE142208A903A8FDF72EF9002403AEB6
:10DF10000BE060008719B8886978FEF791FF002848
:10DF200002D0B88801F06EF9641C0398A042F0D8C2
:10DF300003F0A2FB0DB0F0BD342000200229000048
:10DF40003EB504464088694648802078002814D0B1
:10DF500001281DD002280FD1207900280CD060881C
:10DF600000F05EFA0E49884206D00E490122C978B7
:10DF7000FEF778FF03F080FB3EBD002008700846E6
:10DF8000FFF7B4FB608800F04BFA01F0FFF83EBDEC
:10DF9000012168460170A1888180FFF7A7FB3EBD83
:10DFA000FFFF00003420002010B50446007801284F
:10DFB0000DD1608801F0EAF8608800F06DF9002862
:10DFC00005D0034960880122C978FEF74BFF10BDD8
:10DFD0003420002010B50178072902D1408801F0D3
:10DFE00011F910BD1CB504460621FDF7D6F8012233
:10DFF0006946292003F010F8012201A9282003F026
:10E000000BF868460179007803F002F820800122BD
:10E0100069462B2003F000F8012201A92A2002F012
:10E02000FBFF68460179007802F0F2FF6080012270
:10E0300069462D2002F0F0FF012201A92C2002F0F8
:10E04000EBFF68460179007802F0E2FFA0801CBD7A
:10E0500010B5102001F0C8FA074940186421484360
:10E06000AA21FDF769F8642804DA002800DA002004
:10E07000C0B210BD6420FBE756FDFFFF01780079B8
:10E080000818C0B27047000010B5064A9168D268FF
:10E0900006C0044804A108300CC8042001F09BFD10
:10E0A00010BD0000F41F00203A44454255473A672E
:10E0B000657453656E736F725468726573686F6CC4
:10E0C0006428292C20683A2564206C3A25642E0A9D
:10E0D0000000000010B504460A4841782046FEF7CB
:10E0E000AFFE00280CD0084800210C224A43121829
:10E0F0005288A24201D1C8B210BD491C0829F4D3EC
:10E10000FF2010BD4C2000207426002070B5094D62
:10E11000094E00240C206043401940887178FEF7B6
:10E120008FFE002804D0641C082CF3D3FF2070BDA0
:10E13000E0B270BD742600204C2000201CB5054ABA
:10E140009168D268019200910022694602F05CF861
:10E150001CBD0000B02A0200F1B582B0029800F0A8
:10E1600007FA00241649032501272646884209D0CC
:10E170006A46082102F01EF8002803D1019886881B
:10E180000568841D2B46324621460298A9DF0428E3
:10E1900004D0082804D00B2807D002E0112000E0AA
:10E1A0000020002F00D10B20FEBD0027A80701D5BD
:10E1B0000125E7E73443F6D0002426460325E1E7AE
:10E1C000FFFF0000F1B582B0029800F0D1F90746D8
:10E1D0001B48874201D11B48FEBD01252A466D1C04
:10E1E0000026ADB26B460821384602F013F8040051
:10E1F00002D0072C21D021E0019903230B600A1DD6
:10E20000891D0298AADF040004D00C2C08D0052C2C
:10E2100008D008E00821384602F096F804460DE0E0
:10E22000012600E000240821384602F077F8002893
:10E2300000D00324002ED1D100E00C242046FEBDE6
:10E24000FFFF0000023000001FB5044600780128DF
:10E2500015D12079012812D1608802AA012101F08C
:10E26000A9FF00280BD10221684601706188418016
:10E270000398017868460171054909688847044890
:10E28000044908388088884201D003F021FA1FBD74
:10E2900048200020FFFF00001CB500F069F96A4625
:10E2A000012101F087FF002801D000201CBD01984A
:10E2B00000781CBDF8B5074E074C084D074632469E
:10E2C00061883846A7DFA84203D16088401C60807F
:10E2D000F5E7F8BDFFFF00004020002003300000FC
:10E2E00010B501460148FEF7B7FC10BDB42100206F
:10E2F0008188054A914204D00088002801D001207D
:10E300007047002070470000FFFF00003EB5044644
:10E3100000780D46022815D10322611C6846FCF7DF
:10E3200023FF0322211D02A8FCF71EFF01AA02A958
:10E330002846FDF75DFF032201A96846FCF73FFF71
:10E34000002801D000203EBD01203EBD10B50C4686
:10E35000FFF7C0FEFF280AD00C21484305490722D9
:10E3600041182046091DFCF7FFFE002010BD0520C6
:10E3700010BD00007426002070B5018890B01029EF
:10E3800049D1011D2C2202A8FCF7EEFE6846234E5F
:10E39000007B344602AD03282AD002F0A5F8684677
:10E3A000007B00280ED001280CD0022820D118E0D4
:10E3B0000E99281D1131FDF70BFE002802D068468A
:10E3C000048815E00DAA6946072002F063F80028CA
:10E3D000EED10DE00E99281D491CFFF797FF00288C
:10E3E000EDD10DAA6946072002F054F80028F1D1BA
:10E3F00068460089291D01F08FF8B4420BD06846A9
:10E400000089214600F062F86846018941800121B7
:10E410000170FFF771F910B070BD0000FFFF000040
:10E42000084A00210C234B43D35A834204D10C20C9
:10E430004143881840887047491C0829F2D3024894
:10E440007047000074260020FFFF000070B50446EE
:10E450000D46401C00F04EFC002810D01022691C14
:10E46000601CFCF7ACFE00280AD000262946204696
:10E4700011311130FDF7ACFD01463046084370BD47
:10E480000126F3E70188002903D142189278002A77
:10E4900001D001207047491C0829F6D3002070479D
:10E4A00010B50C460346FFF7EDFF00280BD0188887
:10E4B0002188884206D10822A11C981CFCF77FFE07
:10E4C000002801D0002010BD012010BD10B502F0C1
:10E4D000B5F910BD10B50446007888B0002826D1E3
:10E4E0002079072823D1608801AA072101F062FE64
:10E4F00000281CD101F0F8FF1BE0694660880988FC
:10E50000884216D004990298FFF7A0FF002810D087
:10E510006088FFF785FF01466846C18200210175CA
:10E52000618801830188418305A8FFF7E5F808B0F9
:10E5300010BD03AA6946072001F0ACFF0028DCD11A
:10E54000F5E7000070B50446FFF76AFF0546204670
:10E5500001F035FE054904468D4204D0002C02D15D
:10E56000284602F06BF9204670BD0000FFFF000056
:10E5700010B5FFF7AFFDFF2804D00C214843024936
:10E58000085A10BD014810BD74260020FFFF00008E
:10E590003EB5044601F0A8FF10E00199204646313F
:10E5A000FFF77EFF002806D1019920462A31FFF7A8
:10E5B00077FF002802D0684600893EBD6A4602A95E
:10E5C000072001F067FF0028E7D101483EBD0000A9
:10E5D000FFFF00007CB57D2122480901016022492E
:10E5E00041600024083804602049446009680A68D2
:10E5F000AB2A07D18B684A68C36082601CA10420E3
:10E6000001F0E9FA00F05EF803250122002311462B
:10E6100002200095019401F04DF9002301221146DA
:10E6200018460095019401F045F901221C49042087
:10E63000C860CA601B4A01211B48FDF705FF00287E
:10E6400003D01AA29121FDF741FE174800221C4970
:10E650000068FDF765FF002803D014A29521FDF79F
:10E6600035FE7CBDFC1F0020DC0500005C21002085
:10E670003A44454255473A7265636F766572696EF2
:10E6800067207468726573686F6C642076616C755E
:10E69000653A20683A25642C206C3A25642E0A00DD
:10E6A0000005005011BE0100A82A02002E2E5C6158
:10E6B00070705F6D616E616765722E6300000000AF
:10E6C0008F0200001FB5012269460F2002F0A4FC52
:10E6D00068460078332803D00FA1042001F06EFAB9
:10E6E0001AA000680190012201A91E2004F004F87C
:10E6F00017A000680290012202A9202003F0FCFF6D
:10E7000014A000680390012203A9232003F0F4FF62
:10E71000012004B010BD00003A44454255473A4537
:10E7200072726F7220696E2072656164696E672013
:10E730004C49533344482077686F20616D2049204D
:10E7400072656769737465722E0A0000900000009C
:10E7500057000000B000000070B50D4604461621B9
:10E76000FCF71BFD0020C043208029462046FDF712
:10E77000CBFB002070BD00001FB516491448164A97
:10E78000096800BF00BF00BF00BF00BF00BF00BFDF
:10E7900000BF914200D000BF0138F2D10F490023E1
:10E7A00008694969029004200090062003910190B5
:10E7B0001A466946094801F001F8002803D008A26A
:10E7C0005E21FDF783FD054800F0E8FF1FBD000056
:10E7D000A0860100502100200024F400902A0200AD
:10E7E0002E2E5C7477695F6D616E616765722E6352
:10E7F000000000000149086070470000E81F002089
:10E800000EB518A11A48FCF7E7FC694611200872FA
:10E810001748FCF7CDFC82B2154902A87CDF00281E
:10E8200003D014A24C21FDF751FD002078DF002811
:10E8300003D010A25021FDF749FD00200090502286
:10E84000694601900A80C0224A808880FF2091306A
:10E85000C88068467ADF002803D006A25C21FDF755
:10E8600035FD0EBD416363735377697463680000BF
:10E870007C2100202E2E5C6170705F6761702E63BA
:10E880000000000010B5264C88B0A16860680590B3
:10E89000069105A800F088FE22480121426809037C
:10E8A000FF231B029A43114341600121016014219F
:10E8B0006846FCF772FC6946112048738873002093
:10E8C000C873401C0007000F10300874002000902F
:10E8D00008710290FFF7BCFB694608731248FEF707
:10E8E00097F9002803D011A25321FDF7EFFC154A38
:10E8F00001210B48FDF7A8FD002803D00BA25721EA
:10E90000FDF7E4FC0F21002209042068FDF708FE52
:10E91000002803D005A25B21FDF7D8FC08B010BD8C
:10E92000702A020000750040B42100202E2E5C6287
:10E930006174746572795F736572766963652E635D
:10E9400000000000E9C7010030B50C46054620492B
:10E9500087B0002008611F481F4B006805904822BF
:10E960001E4905A803F0BEFA002803D01CA22D21E1
:10E97000FDF7ACFC6A460121002003F083FA002871
:10E9800003D017A23121FDF7A1FC0B20C001049098
:10E99000012069460873684603F004FA002803D092
:10E9A0000FA23C21FDF792FC204603F0F1F900286C
:10E9B00003D00BA24021FDF789FC284603F0C4FADE
:10E9C000002803D006A24421FDF780FC07B030BD2B
:10E9D000400500407C2A0200C91E0200CC21002014
:10E9E0002E2E5C626C655F737461636B2E63000036
:10E9F00000B591B040216846FCF7CFFB11211748C4
:10EA0000FCF7CBFB1648036A426A16A11348FCF7D1
:10EA100077FF17A16846FEF709FB17A106A8FEF7C6
:10EA200005FB17A108A8FEF701FB0C4904A8FEF797
:10EA3000FDFA0120014608A81031017700200146A7
:10EA400008A841776846FEF751FA002803D00FA2C4
:10EA50002C21FDF73BFC11B000BD0000142200206A
:10EA6000400000102530387825303878000000004C
:10EA7000756E6B6E6F776E0072657620312E30008A
:10EA800072657620312E3030000000002E2E5C643E
:10EA900065766963655F696E666F726D6174696FD3
:10EAA0006E5F736572766963652E6300F8B50F4615
:10EAB000002804D00120FEF73DFF0120F8BD397980
:10EAC00000290AD00026254D01290BD0244C02290B
:10EAD00020681FD003293BD125E001F051FA012124
:10EAE000397133E000200101695C02290BD0401C20
:10EAF00080B20228F7D30220FEF724FF0120FEF7A0
:10EB000019FF1848F8BD04016019406801F02AFA9D
:10EB10002E551BE00146002301221348FEF772FF29
:10EB20000221A18011E001F01DFA0C492368203177
:10EB300049880A01094951184D6825604B60A3882E
:10EB40000B810221A18005498E543E710028D9D045
:10EB50000120FEF7EFFE0E20F8BD0000242C00205F
:10EB60000C2100201D1D00006C21002001700912E5
:10EB700041707047F8B5204C207800283AD0E06802
:10EB8000002600280ED000256078002832D1684683
:10EB900052DF052808D0002808D0184AA521FDF723
:10EBA00095FB0BE00125EFE7012607E0009800F058
:10EBB000BFFD2169002901D000988847002D15D19B
:10EBC0006078002816D1608869460880A06861DFF7
:10EBD000052806D0002806D0084ACA21FDF776FB92
:10EBE00004E0012502E0E168A0688847002ECBD050
:10EBF000002DE3D0F8BD00003C210020B02D020024
:10EC00007FB50C460D462035064669782878019177
:10EC1000009022462632D11E3046E36903F0AFFB56
:10EC2000002819D1E87800281DD1207B022801D0C6
:10EC3000032818D12269E169914214D16269E26125
:10EC4000E37B2B70217E8906C90F6970032804D0ED
:10EC50003146204603F02CFB7FBD00913146204613
:10EC600003F012FC7FBD20460C3007C801AB07C380
:10EC7000E878002100280ED00920C0013218506C1D
:10EC80005064820701D5012002E0400705D502202B
:10EC90006A46107001E0684601702971207E4007C5
:10ECA000E0D422686846616890477FBD1048018CB7
:10ECB000C9B2012917D1818C090714D1018D090628
:10ECC0000A0F03D1828D1206120F0ED0090F0129EF
:10ECD00003D1828D1206120F07D0032903D1808D34
:10ECE0000006000F01D0002070470120704700008F
:10ECF000C00F00F00021425C002A01D001207047C3
:10ED0000491C1029F7D300207047800701D000204C
:10ED10007047012070470000FFB5244D81B0287A6C
:10ED20001F460E46084304D0039A002E04D000214B
:10ED300004E0052005B0F0BD1C491031019802F037
:10ED400029FF0446014600220198FEF703FE002F2A
:10ED500003D021460198FEF7AFFC112C0FD006DC42
:10ED6000002C0AD0082C08D00D2C05D105E0862CEB
:10ED700011D00F48C44200D003242046DAE73246BF
:10ED8000E9780198FEF76EF8A978039A0198FEF7E2
:10ED900069F80024F1E73246E9780198FEF762F855
:10EDA000A978039A0198FEF75DF8E6E78020002035
:10EDB000FECFFFFFFEB517460C00064604D02078B4
:10EDC000C00704D0012003E000217EDFFEBD022049
:10EDD000694608713046FFF7CBFB17490546884264
:10EDE00008D001A800902B463A462146304600F054
:10EDF00025F806E020782146C007304603D000F011
:10EE000081F804460BE07EDF044600200090002CD1
:10EE100008D0002201232946304602F06BFB002C6B
:10EE200002D006E00122F5E768460179304602F09B
:10EE300087FB2046FEBD0000FFFF0000FFB585B048
:10EE400000252E4601AA07210E9F089801F0B2F96D
:10EE5000040008D1029D4420405D1835C607F60F16
:10EE600001D0029D34350798204312D1002D10D0D7
:10EE7000002E05D128461230FFF704FB002808D0E9
:10EE800029462A461231059885DF0446002038704D
:10EE900023E0002C01D0052C1FD106980078C00774
:10EEA0000DD003AB01220721089801F0B3F904004B
:10EEB0000AD10721089801F0ABFA040004D10699A1
:10EEC00005987EDF040008D00721089801F026FA93
:10EED000002802D0052800D00324002000903878B4
:10EEE000002801D0012300E00023002C07D00022DD
:10EEF0000899059802F0FEFA204609B0F0BD0122FB
:10EF0000F6E70000FEB50F46064601F04FF905464C
:10EF10001848854220D001AB01220721284601F084
:10EF200079F904000AD10721284601F071FA04009A
:10EF300004D1394630467EDF040008D00721284638
:10EF400001F0ECF9002802D0052800D003240120AC
:10EF50000090002C0BD002E003240020009000223F
:10EF600001232946304602F0C5FA2046FEBD0122A3
:10EF7000F6E70000FFFF0000F7B5114D0F461646FB
:10EF800029780098FDF75CFF002812D00098FFF761
:10EF9000EFFA04460B4884420BD069780098FDF7DD
:10EFA0004FFF002806D033463A462146009800F02D
:10EFB000F9FFFEBD324639460098FEF71FFBFEBD45
:10EFC0007C200020FFFF0000F1B586B00698FDF719
:10EFD0002BFF002821D06846FDF76EFE00246E4608
:10EFE00018E060008519A8880699FDF729FF002818
:10EFF0000FD00B4FA888B978FDF722FF0590A8889D
:10F00000F978FDF71DFF0146A8880123059AFFF74F
:10F0100083FE641C0098A042E3D807B0F0BD000056
:10F0200080200020F0B5284C2146103948688B68B4
:10F03000227886469C46CF78667836E0182353437C
:10F040006168521CC918A378D2B2934200D1002241
:10F050000B78022B02D0032B27D123E003464D6807
:10F06000194603E0A94204D00B46C96900291CD007
:10F07000F8E7002919D08B4208D1C069002805D1D2
:10F08000124F0125BD600025AC4601270D68C969F6
:10F09000D961002909D00B685B190B6005E0017488
:10F0A000C06900E000210028F9D19642C6D1064986
:10F0B000624610398A604860CF70704501D00120E7
:10F0C000F0BD0020F0BD000028210020001001400C
:10F0D000F8B52C4E044670680025009041E0002CE5
:10F0E00002D02046E46920E0264818231030017839
:10F0F00042684B43491CC9B2D218017083789942C7
:10F1000000D105701178506801292CD1017C0029AB
:10F1100029D191684160D16881601169C1605169EC
:10F120008161F178002900D045604368B268164FCC
:10F13000991A0902090AB94202D28268891806E0BE
:10F14000D11A09028268090A8A4202D9511A016059
:10F1500000E005604560012185600174C56102F031
:10F16000CDFF002CBBD10748103001784078814298
:10F17000BAD171680098814201D00120F8BD002009
:10F18000F8BD000018210020FFFF7F00FEB50446F7
:10F190001948002684422DD02046FEF7DDFF0500E9
:10F1A00012D00B2D14D0112D10D01448C5421BD0F5
:10F1B0000921684601702046FFF7DAF901466846E2
:10F1C0004180848002950DE0022102E001260BE0DF
:10F1D0000321684601702046FFF7CAF901466846D8
:10F1E00041808480FEF782FA0548324681782046C5
:10F1F000FDF738FEFEBD0000FFFF0000FECFFFFF61
:10F2000034200020FEB504460026FEF7DBFF05464D
:10F21000112818D004DC002D13D00C2D05D114E0DA
:10F22000862D25D01348C5421BD0092168460170A0
:10F230002046FFF79DF9014668464180848002958B
:10F240000DE0012102E001260BE007216846017074
:10F2500084802046FFF78CF9014668464180FEF71E
:10F2600045FA0548324641782046FDF7FBFDFEBDD4
:10F270000821EBE7FECFFFFF34200020F8B505465C
:10F2800000780C46002620420FD100206946087005
:10F290006846FDF789F92878204202D1204328707A
:10F2A000012668460078FDF79DF93046F8BD00005C
:10F2B00008B5002000F0A6FC2B4A14210820FDF719
:10F2C000ADF8002803D029A2DA21FCF7FFFF2A4B72
:10F2D0002A4A09210020FDF7E9F8002803D023A2DB
:10F2E000DB21FCF7F3FFFFF747FAFEF7EFFB0028FF
:10F2F00003D01EA2E221FCF7E9FF21492148FFF7D4
:10F3000023FB6946204863DF002803D017A2EA21C7
:10F31000FCF7DCFFFFF774FA21211C480902018089
:10F32000694609788170FFF765FAFFF761FBFFF71F
:10F33000A9FA124869460978D830FFF70DFAFFF7A5
:10F3400049F902F00BFE12A1042000F037FCFF2463
:10F35000063448DF002803D004A22146FCF7B6FF9C
:10F36000FDF73EF8F5E70000282200202E2E5C6D08
:10F3700061696E2E6300000095C4010078230020AF
:10F3800045D50100ADD50100802A0200EE1F002006
:10F390003A44454255473A53746172742E2E2E2ECC
:10F3A0000A000000F0B50B30C108C900144F002658
:10F3B000144A0FE003688B420BD38B4205D95C1AC9
:10F3C0004318456830C3083B00E04368136002C03F
:10F3D00004E0021D10680028ECD13046002803D15B
:10F3E0003868002801D00020F0BD064A06481060A9
:10F3F000064A121AD208D20044C001203860D7E76A
:10F400005821002054210020642F00206037002064
:10F4100070B5144682880E4605462088111D411895
:10F42000921C994201D8FE2A01D90C2070BD521CB1
:10F4300032542088FF21401C80B220803154208823
:10F44000401C80B220808119288803F0B1F82188FF
:10F45000401880B22080AA88002A09D0A968002913
:10F4600008D08019FBF780FE2088A98840182080EA
:10F47000002070BD072070BDF8B50F460178144616
:10F480000546012902D16878002806D02088821C10
:10F490009A422DD8012902D006E00720F8BD6978EC
:10F4A0004118891C994223D8181A801E86B26846D2
:10F4B00006802188B81C081869467DDF0028EDD138
:10F4C0002878022805D169460988B14201D8092166
:10F4D0000AE00821012805D16878B04202D86A46BE
:10F4E000108001E06846068068460088FE2801D941
:10F4F0000C20F8BD2288401CB8542088401C80B2E3
:10F500002080395420886946401C20800988401892
:10F5100020800020F8BD0000F8B5FF240F46054606
:10F5200000291FD0104EB5421CD01048012241784E
:10F530002846FDF797FC2846FEF7CCFD0446FF2839
:10F5400004D1FEF7E3FD0446FF280BD00C2148430D
:10F5500007490246401845808E5207223946001D51
:10F56000FBF702FE2046F8BDFFFF00004C20002004
:10F570007426002070B50B4D0E46A84201D1002024
:10F5800000E0401C84B209E02146304601F054FA04
:10F59000002801D0204670BD641CA4B2FF2CF3D912
:10F5A000284670BDFFFF000010B501788A0741783A
:10F5B000920F4907C90E406811438207540E0C434D
:10F5C0008103890F03D0032109040840044300206C
:10F5D00000F020F803494868FF221202104020433F
:10F5E000486010BD0075004010B500F013F8064AE1
:10F5F00001211160054800230468002CFCD0036041
:10F6000003488068516010BD0070004000710040E8
:10F610000075004010B5064902024B68FF24240221
:10F62000A3431A434A60002800D00120086010BD9F
:10F6300000750040C20843075B0F0120895C9840B9
:10F64000084070470121890740180068002800D051
:10F650000120704700280FD00849094A096800BFF7
:10F6600000BF00BF00BF00BF00BF00BF00BF91428E
:10F6700000D000BF0138F2D17047000050210020B7
:10F680000024F40000280FD00849094A096800BF87
:10F6900000BF00BF00BF00BF00BF00BF00BF91425E
:10F6A00000D000BF0138F2D1704700005021002087
:10F6B0000024F40070B50E4C00252078002801D0FD
:10F6C000852513E00021A16061602161E1600948A6
:10F6D00000680126304002D1032100F02FF802F02B
:10F6E0002DFC002801D1044886612670284670BD93
:10F6F000A02A002000E100E00005004038B500200D
:10F70000694608706846FCF74FFF084C20780028CF
:10F7100001D1FFF7CFFFE068401CE0600120A0703E
:10F7200068460078FCF75EFF38BD0000A02A002084
:10F7300010B5002801D1FDF7F7FD10BD8207D30EEB
:10F74000FF229A408907090E10B5994000280BDA6C
:10F7500003071B0F083B9C080C4BA400E318DC6953
:10F7600094430C43DC6107E08408094BA400E418CF
:10F77000236893430B432360C106C90E01208840D0
:10F78000044908600449086010BD000000ED00E075
:10F7900000E400E080E200E000E100E001792822DE
:10F7A0005143054A0068891805221302C0180260F7
:10F7B0000220203188707047102B0020F8B50746D2
:10F7C0000C460079282148431B4945182E4620360F
:10F7D000B078002801D00820F8BD0CC500202860B2
:10F7E00070713071A07BF071607B083D002802D001
:10F7F000204602F001FD216810488A001049521885
:10F8000010606268920051180860052338681B0276
:10F8100006CCC0188160C260216841622868083C3B
:10F82000002805D03868217B000B40B2FFF786FF27
:10F830000120B0700020F8BD102B00200C06000045
:10F84000000700503EB5074D2C68AD680094029546
:10F850006C466170A37001920022694600F016F8B0
:10F860003EBD0000302B02003EB50025069C0095F1
:10F8700002956D466970AB700192002C01D0202278
:10F8800000E00022294600F001F83EBD70B50D46AB
:10F89000017928235943064BCC18910701D0062043
:10F8A00070BD134601682A46204602F03BFE70BD3B
:10F8B000102B002070B552000A439900049D0A43A2
:10F8C0002902059E0A43310405240A4324078000C7
:10F8D0000721001909024018026070BD05221207B5
:10F8E00080008218072000021018026803231B04FE
:10F8F0009A430260026809040A43026070470000EC
:10F9000001218140014881607047000000050050DE
:10F9100038B5084B05241B68009324026B46411838
:10F9200005E085005D592D192D69401C20C28142DA
:10F93000F7D838BD2C2B0200024940180021016085
:10F94000704700000060004003494018006801282B
:10F9500000D0002070470000006000400048704761
:10F9600089F9010070B5074D04462878002802D0B7
:10F970006878844204D0FBF70FFE012028706C7079
:10F98000002070BD38210020F0B5C5B01746002218
:10F99000084600924D994B9A1E4651180391002833
:10F9A00001D00A2100E0002104AD0191002E15D103
:10F9B0006A46294602F006FC002870D03846FBF75C
:10F9C000F7FBC22800D9C220044600982246281816
:10F9D0003946FBF7C9FB009800190090009A01987E
:10F9E000111804A8841831314518002003E02021A3
:10F9F0002170401C641C01998842F8D300270398A9
:10FA0000864207D3202020706070A0702870E41C0C
:10FA10006D1C2CE04B98864202D24A98805D02E031
:10FA2000311A4C98405C22468446012102908B009A
:10FA30006046D8400007000F092801D9373000E0A0
:10FA4000303001235B1AD054491EF0D22020907030
:10FA5000D41CFBF785FB01680298085C8006C00E89
:10FA600001D0029800E02E2028706D1C761C7F1CAF
:10FA7000102FC4D30D2028700A2068702020207019
:10FA8000009901980918433104A8009101F0CBFDB9
:10FA9000002804D000200090039886429ED3304670
:10FAA00045B0F0BDFFB5C7B008460025509F06AE73
:10FAB0001C46314605AA059502F084FB002836D085
:10FAC0003846FF2701370300FBF72EFF0705131BFE
:10FAD000333F4B5725004998FBF76AFB05990546CC
:10FAE0004018FF2817D870182A464999FBF73CFBA5
:10FAF00011E005982368391A3018499AFBF7E6FE99
:10FB000008E06068009005982368391A3018499A0F
:10FB1000FBF7DCFE0546294605A8FDF79DFA059989
:10FB2000002839D0B94237D806A801F07CFD4BB087
:10FB3000F0BDA16860680090019105982368391AAA
:10FB40003018499AFBF7C2FEE4E7201D07C86B4650
:10FB500007C305982368391A3018499AFBF7B6FE8F
:10FB6000D8E7201D0FC86D460FC505982368391AC0
:10FB70003018499AFBF7AAFECCE7204608300FC898
:10FB800001AD0FC56068009005982368391A3018D8
:10FB9000499AFBF79BFEBDE70020C8E70048704785
:10FBA000A5FA010038B50093034B0D465C69134676
:10FBB00000212A46A04738BDBC2C002010B50023E8
:10FBC0001A46FFF7EFFF10BD08B5009201236A4601
:10FBD000FFF7E8FF08BD1CB50193009202236A46B7
:10FBE000FFF7E0FF1CBD3EB56D46069C1CC5032318
:10FBF0006A46FFF7D7FF3EBD014A916150617047E9
:10FC0000BC2C002070B50120FFF7ACFE040008D129
:10FC1000FFF7C4FF0546FFF7A1FE01462846FFF7A0
:10FC2000EBFF204670BD4058002800D001207047EF
:10FC3000F0B58BB005468C1D142104A8FBF7ADFA76
:10FC40000026009601960296039620780127012847
:10FC50001FD002281BD16088A989884217D121466C
:10FC60000E3109A8FDF70CFC002802D009A801F00C
:10FC7000E5FD022168460170868087712888694603
:10FC8000A8DF002803D013A24F21FCF71FFB0BB005
:10FC9000F0BD6088A9898842F9D109A8FEF7F4F976
:10FCA00009A904A801F0D5FC694600060F70000EF2
:10FCB0008E8001D0012200E000228A7148810E81ED
:10FCC00004A803902888A8DF0028E0D001A23621EC
:10FCD000DBE700002E2E5C73656E736F725F7365D9
:10FCE00072766963652E630010B5024602A1042096
:10FCF000FFF76AFF10BD00003A44454255473A0AF3
:10FD00006F6E5F6164766572746973696E675F6553
:10FD100072726F722829206572726F723A3078257C
:10FD200030782E0010B50300FBF7FEFD0906100F1A
:10FD3000121416181A1C0F000420FCF7ABFE002842
:10FD400003D00BA21B21FCF7C1FA10BD0FA10AE0E2
:10FD500016A108E01CA106E022A104E02BA102E00C
:10FD600034A100E03DA10420FFF728FF10BD0000F2
:10FD70002E2E5C6164766572746973696E675F6D5F
:10FD8000616E616765722E63000000003A4445426F
:10FD900055473A0A424C455F4144565F4556545FC9
:10FDA00044495245435445442E0A00003A444542D2
:10FDB00055473A0A424C455F4144565F4556545FA9
:10FDC000464153542E0A00003A44454255473A0AE8
:10FDD000424C455F4144565F4556545F534C4F5724
:10FDE0002E0A00003A44454255473A0A424C455FC4
:10FDF0004144565F4556545F464153545F57484906
:10FE000054454C4953542E0A000000003A444542E0
:10FE100055473A0A424C455F4144565F4556545F48
:10FE2000534C4F575F57484954454C4953542E0A39
:10FE3000000000003A44454255473A0A424C455FAB
:10FE40004144565F4556545F57484954454C4953C1
:10FE5000545F524551554553542E0A003A44454289
:10FE600055473A0A424C455F4144565F4556545FF8
:10FE7000504545525F414444525F524551554553A8
:10FE8000542E0A0010B5134A00215170017A01293D
:10FE900011D002290ED18189491C8181C189491C57
:10FEA00089B2C181028A914204D1002101F056FB3E
:10FEB00000F0C6FF10BD838AC28A991AFF2901DCAF
:10FEC00089B201E0FF210131511889B2C182994202
:10FED000EBD010BD14210020F7B51C4D0E46014695
:10FEE0006A6F002082B0032A2DD82C467834082768
:10FEF000636CBF1BBB4226D8286F10188007800F89
:10FF00001C2250434019FBF72FF9686F401C6867AB
:10FF1000002E17D0216C606C40184007800E00192D
:10FF20000023009009E00498D9000A1806CA009836
:10FF300006C06846FDF7CEF95B1CB342F3D3606C94
:10FF400080196064012005B0F0BD0000642B002022
:10FF50000389CA1C9A1802814289511AC91E41811B
:10FF60007047000008B50021009101460223024AB3
:10FF70000248FDF70DFE08BD482B02006C21002051
:10FF800008B500200090044802230168034A044891
:10FF9000FDF7FEFD08BD00000C210020402B0200F3
:10FFA0006C21002070B5184D0E46044623CD86B056
:10FFB0000295009001916846448082808371134DC0
:10FFC0002046A978FCF73CFF002803D03046FEF716
:10FFD000B9FA0FE00721304600F0A0F9002809D057
:10FFE000052807D1092269460A73CC81049003A829
:10FFF000FDF7A4FB002229782046FCF733FF684672
:020000040002F8
:10000000FDF79CFB06B070BD102B02007C20002089
:10001000F0B585B00746FCF707FF002814D0684606
:10002000FCF74AFE00246D460BE060004619B088DC
:100030003946FCF705FF002802D0B08801F04AFEDF
:10004000641C0098A042F0D805B0F0BD70B5054D15
:1000500006460024A000295830468847641C052C19
:10006000F8D370BDD02A020010B500F00BFA10BD15
:1000700010B500F00BFA10BDF0B5002585B0009565
:10008000019502950395044641886846418021798F
:1000900001712E462179608802F068FB22780421E4
:1000A000404F1300FBF740FC0A0606361C1C383E86
:1000B00043484B4D00280DD0417CC9070AD002F0BF
:1000C0008DFB684606702078012800D00020694624
:1000D00008722AE0012069460870A068029024E0B6
:1000E00000280ED08268A3689A420AD1427CD307C6
:1000F00007D07B6852085B1C52000A437B60427445
:100100001FE0022069460870E06803900DE0FFF7E9
:100110009DFF16E0032006E068460170E06802904B
:100120006846F4E70520694608700846EFE70620B0
:1001300069460870E068D1E701250720F3E7E06829
:1001400002907868002824D0174E002414202746F7
:100150004743B819417C4A0703D48907C90F29428C
:100160001CD08178F05B00F0EFF8002816D0142145
:100170004C43325B69464A80B9198A7869460A71EC
:10018000862808D009216A46117002906846FFF758
:100190005DFF05B0F0BD08200870F7E7641C082C6F
:1001A000D4D3F6E7642000207429002010B500F0B5
:1001B00033FA10BD10B5002300F09EF910BD38B51C
:1001C0000546002420460AE08178284600F0A6F87B
:1001D000002802D0052800D003240098401C00907D
:1001E0006946284602F0D4FA0028EDD1002C07D148
:1001F000284600F019FA002802D0072802D003246C
:10020000204638BD0724FBE710B51346002200F056
:10021000ABF910BDFFB581B0049815460E46002815
:1002200004D0072E05D0082E19D102E00E2005B00B
:10023000F0BD002D13D0082D11D8019800F0FFF962
:1002400000280CD0002000903146019802F08EFA70
:10025000041E26D0E068A84212D2002709E0072039
:10026000E5E7207CC019C1B22A4800F040FB7F1CA2
:10027000FFB2E068B842F4D8204602F09DFA10E0E0
:10028000A84217D9EFB207E0207CC019C1B22148BB
:1002900000F02DFB7F1CFFB2E068B842F4D8002CC0
:1002A00008D1FF211C48019F02F060FA041E05D00E
:1002B0000780A670207CFF2802D00AE01120B6E754
:1002C0002946144800F0CDFA2074FF2813D00120ED
:1002D0000090E560217C0F4800F0F2FA02000ED099
:1002E000ABB23146049800F03BFA009800280FD0DA
:1002F000082E06D00CE0204602F05EFADEE703206E
:1003000095E704980499008849688000801F8880D8
:1003100000208CE764290020FFFF000070B5002456
:1003200002F024FA05000CD06868002804D000F020
:10033000A2F9040000D00324284602F04FFA204618
:1003400070BD052070BD00007CB50D46064607292E
:1003500003D0082D01D007207CBD00200090019023
:10036000684685702946304602F000FA040004D041
:10037000607CC00703D000207CBD05207CBD217CB3
:10038000214800F09DFA020025D029466846E3681E
:1003900000F079F9684602F0D7F923460833694638
:1003A0003046626800F0E0F80246607C1749430777
:1003B00004D5830702D54B685B1E4B60FB25FD23EC
:1003C000002A0AD0112A0DD0862A14D0072A00D07C
:1003D000032210467CBD03207CBD01210843284038
:1003E00018400EE04A68521C4A6004210843184035
:1003F00060740022EDE74B6828405B1C4B600221D3
:1004000008436074E5E700006429002064200020B0
:100410007CB50D46072903D0082D01D007207CBDEF
:10042000002602F0A3F9040003D06068002802D07F
:100430001BE005207CBD217C0E4800F041FA0246FD
:1004400000200090019068468570002A0FD0294650
:10045000E36800F018F9684602F076F9211D684655
:1004600000F0F1F80646092801D030467CBD032093
:100470007CBD00006429002001490968084700008C
:10048000CC2A020010B500F09FF910BD10B500F0A5
:10049000A3F910BD70B505460320800386B014464D
:1004A0000E46281880B20F4A6946FDF7A8F90028C1
:1004B00005D103A96846FDF7BDF9002802D0002048
:1004C00006B070BDA57003984088208004986060D5
:1004D00003988088FDF728FA30806846FDF768F9B0
:1004E0000120EDE75C20002002480021416081608E
:1004F0007047000058200020F0B587B01D46144614
:1005000007460E46FF280CD8084600F019F90028C7
:1005100007D003AA3146384600F0FAF8002809D17E
:1005200002E0072007B0F0BD01A903A8FDF782F99A
:10053000002801D00520F5E7A6700198002D40881D
:1005400020800AD082002868904204D8029960680E
:10055000FAF70AFE03E00420E4E70298606003A8CB
:10056000FDF726F90020DDE77FB588B01D460C4673
:100570000646FF2834D8A07800F0E2F800282FD0F3
:1005800060680690208869468883304600F064F9E8
:1005900069460880A078032189034018694648808D
:1005A00006A8019001200881A17803AA304600F036
:1005B000AFF805280A9815D0002802D00AA8FDF740
:1005C0008FF9694603A8FDF757F9002817D00728C7
:1005D0001FD008281BD00E2819D003200CB070BDE6
:1005E0000720FBE7002805D00AAA694603A8FDF703
:1005F00053F9EAE7694603A8FDF748F9E5E7002D56
:1006000003D0294603A8FDF70AF90020E6E71120E8
:10061000E4E78620E2E7000010B5024800F0AAF8FF
:1006200010BD0000FFFF000010B5FF2801D9072012
:1006300010BD00F0A7F800F02BF8002010BD10B599
:1006400000F0E4F810BD70B504460D46807800F067
:1006500077F800280BD021882846FDF727F90028D5
:1006600004D0072805D0092800D0032070BD07203A
:1006700070BD862070BD01B56846FDF731F90028D0
:1006800000D0032008BD10B59BB200F069F810BD82
:10069000F0B589B000261C4F04963846059603E055
:1006A000204600F083F8204600F08EF80446B84259
:1006B00007D000F0D1F804AA06A9FDF7A8F80A2887
:1006C000EED0124DA878002819D1BC4217D00320D3
:1006D000800301272018AF7080B2FDF743F8082887
:1006E0000FD000280BD0AE70092269460A704C80EA
:1006F000FF220A71039002966846FFF7BDFE09B01B
:10070000F0BD6F70FBE70000FFFF000058200020E5
:100710007CB5054616460C46084600F011F8002048
:1007200003210090890301906818611880B289B292
:100730006B463246FDF75CF8002800D005207CBDF2
:1007400007280BD0012809D0082807D0052805D094
:10075000062803D0042801D00020704701207047EC
:1007600010B5502463439BB28170DB1C9908426032
:10077000018010BD10B50249FCF7B8FD10BD0000A6
:10078000142A002010B504460648844207D00649C2
:100790002046FCF7ABFDA04201D1012010BD002096
:1007A00010BD0000FFFF0000342A002010B50446F1
:1007B000044900F059FD03492046203100F054FD62
:1007C00010BD0000142A002010B50249FEF7D2FE29
:1007D00010BD0000342A002070B50A49FEF7CAFE99
:1007E0000446094D08E000F01DF8002807D005492F
:1007F0002046FEF7BFFE0446AC42F4D170BD204651
:1008000070BD0000142A0020FFFF000010B5FF2873
:1008100004D80146024800F00FF910BD002010BDB9
:10082000142A002010B5FF2804D80146024800F021
:1008300003F910BD002010BD342A002010B50C466D
:10084000FDF748FCFF2803D00C21484301490C5216
:1008500010BD00007426002003218903401880B2D7
:100860007047F8B50F46060028D03068002825D01C
:100870007068002822D0FF2400251CE029467068FB
:1008800000F0B2F8002808D0FF2C00D12C46281B1D
:10089000401CB8420DD12046F8BDFF2C06D108E01F
:1008A0002146304600F023F8641CE4B2AC42F7D392
:1008B000FF246D1CEDB2B068A842DFD8FF20F8BD60
:1008C00070B504000D4610D0206800280DD0606877
:1008D00000280AD0FF2D08D000F0AEF8002804D080
:1008E000E06821686843081870BD002070BD70B5CD
:1008F00004000D460FD0206800280CD06068002846
:1009000009D0FF2D07D000F097F8002803D0294622
:10091000606800F09DF870BD70B586B00446142183
:100920006846FAF73AFC608869468880FDF778FDEA
:1009300069464880267800200822072105253300D3
:10094000FAF7F2FF0A06060B0D0F1416281A1D25DA
:100950006B46197058721A7219E00D2009E00E20CA
:1009600007E06A4611705072157210E00F2000E027
:100970001020694608700AE06846057007E0062105
:1009800068460170A0680290A18868464180684668
:10099000FCF7C0FE06B070BD10B50446007886B006
:1009A00000281AD0012816D10E4960880122497901
:1009B000FCF758FA14216846FAF7EFFB608869469D
:1009C00048806088FDF7D4FD694688800020087063
:1009D0006846FCF79FFE06B010BDE08800F004F901
:1009E000F9E700006C20002010B5002809D04B0763
:1009F0005B0F01229A40C908D2B208181146FEF7CF
:100A00003DFC10BDF8B50D46060013D000240127AB
:100A10000EE06107490F38468840C1B2E0088019EE
:100A2000FEF72CFC002801D02046F8BD641CA4B2BF
:100A3000AC42EED32846F8BD002807D0CA08805C37
:100A40004A07520F01219140084000D00120704711
:100A5000F8B504464805050E4907490F01208840AE
:100A6000C6B2002C0ED0605D30420BD0002168462B
:100A70000170FBF799FD605DB043605568460078F2
:100A8000FBF7B0FDF8BD000010B50446064800783D
:100A9000002808D02046FDF76FFC204600F0A6FF96
:100AA0002046FDF7D5F910BD6C200020F0B58BB0C5
:100AB000044614216846FAF770FB6088694688800E
:100AC000FDF7AEFC694648802778012008220721FF
